:020000020000FC
:100000000C943F000C945B550C9436550C949B5506
:100010000C943E000C94BB550C943E000C947B5504
:100020000C943E000C943E000C943E000C943E0058
:100030000C943E000C944E4A0C94814A0C943E0061
:100040000C943E000C943E000C943E000C943E0038
:100050000C94DB550C943E000C943E000C943E0036
:100060000C943E000C943E000C943E000C943E0018
:100070000C943E000C943E000C943E0018950FEF3B
:100080000DBF00E10EBF0E944F090E9451160E9451
:10009000116900E00093B70700E00093B80700E0A3
:1000A0000093B90700E00093BA0700270093EB071D
:1000B00000270093F80700270093E007002700932C
:1000C000510800E00093F90700E00093FA0700E010
:1000D0000093E4060093E5060093E60600270093EC
:1000E000C5070093C6070093C7070093C80700938E
:1000F000C9070093CA070093CB070093CC0700936E
:10010000CD070093CE0700930508009306080093DF
:100110000708009308080093090800930A08009351
:100120000B0800930C0800930D0800930E08009331
:100130000F08009310080093110800931208009311
:1001400013080093140800931508009316080E94E2
:10015000406C0FE00093AE0600EA0093AF0600E0AB
:100160000093B006E5E0F8E0E0930308F09304089C
:10017000EAE1F8E0E0931808F093190800270093EB
:1001800035080E94D8140E94FE090E949A1A0E9403
:10019000C52700913608002312F40E94F17178946B
:1001A0000E94CC69093011F40E9427150E94C527CE
:1001B00006E006BB0E94084A0E9484560E9410096D
:1001C0000E9480260E941E0D0E949D3C0E94840D6C
:1001D0000E94693B0E944D020E94940A0E94750C85
:1001E0000E948D4A0090F9071090FA07011481F0DF
:1001F0000091F9070093FA070090E107009400923C
:10020000F0070090E7071090F00701280092E70739
:100210000090EC071090ED0701240092F007009089
:10022000E10700940092F1070090F0071090F107A9
:1002300001200092F0070090E7071090F0070128D6
:100240000092E7070090EC071090EC070120009265
:10025000ED070091E70700232AF400270093E70742
:100260000E9479220091E10700230AF4A3CF03B191
:10027000009502950F70013009F09CCF00E00093CB
:100280006F0000270093F8070E94BB0B0E94B1612A
:100290008DCF0E94666901E00093B50702E00093EC
:1002A000B60700E00093B10701E00093B207EF93B7
:1002B000FF93E2E1F4E00E947B67FF91EF9100E0A1
:1002C0000093B1070EE00093B207EF93FF93E4E2CF
:1002D000F4E00E947B67FF91EF91E7E9F0E00E9474
:1002E000E8690E94206700E00093B10707E10093EE
:1002F000B207EF93FF93E4E3F4E00E947B67FF9182
:10030000EF910E94E8690E94206700E00093B10726
:1003100000E20093B207EF93FF93E4E4F4E00E945D
:100320007B67FF91EF910E94E8690E94206700E0DF
:100330000093B10709E20093B207EF93FF93E4E55E
:10034000F4E00E947B67FF91EF910E94E8690E94B0
:10035000206700E00093B10709E30093B207EF9331
:10036000FF93E4E6F4E00E947B67FF91EF91EAE7F8
:10037000F4E004E0019FE00DF11D05910093B10749
:1003800005910093B20705910093B3070491009380
:10039000B40700E00093B5070E9499660E941169B6
:1003A0000E94DD69083009F40895043021F41A959B
:1003B0000AF413E06ECF023029F41395143009F4D7
:1003C00010E067CF013021F5E7E9F0E002E0019F9E
:1003D000E00DF11DEF93FF930E94E869EAE8F4E075
:1003E00004E0019FE00DF11DC591D5910590159098
:1003F000E02DF12D0E94FD38A02DB12DFF91EF9140
:10040000E7E9F0E002E0019FE00DF11D0E94EF69D5
:1004100040CF43616D657261205374616220536502
:1004200074757000526F6C6C206761696E202020BB
:10043000203A0000526F6C6C206F66667365742002
:10044000203A00005069746368206761696E20205B
:10045000203A00005069746368206F6666736574A3
:10046000203A00004241434B2050524556204E4511
:100470005854204348414E474500530D6E165316BD
:100480006E1F531F6E2853286E310083007D0000BD
:1004900064000083007D0000640000914408013086
:1004A0000CF496C00091440802300CF401C02CC03A
:1004B000B0915505A0915605D09157050E94585A04
:1004C000B0935505A0935605D093570500E00093CF
:1004D000400504E00093410500E7009342051091B8
:1004E0005505209156053091570540914005509192
:1004F0004105609142050E948B6A7093D5068093F6
:10050000D6062092D70664C003E00093400508EEAB
:100510000093410500E00093420530915805409159
:10052000590550915A05609140057091410580919F
:100530004205580F471F361F309358054093590501
:1005400050935A0530915B0540915C0550915D05D3
:10055000609140057091410580914205580F471FF9
:10056000361F30935B0540935C0550935D0500E0BA
:100570000093400502E00093410508E30093420523
:10058000109158052091590530915A054091400528
:1005900050914105609142050E948B6A7093CF068D
:1005A0008093D0062092D10610915B0520915C05C6
:1005B00030915D05409140055091410560914205A3
:1005C0000E948B6A7093D5068093D6062092D70638
:1005D0000091CF060093D8060091D0060093D9066B
:1005E0000091D1060093DA061091BA062091BB065D
:1005F0003091BC064091CC065091CD066091CE065C
:100600000E948B6A709340058093410520924205B9
:100610003091D8064091D9065091DA066091400594
:100620007091410580914205580F471F361F309346
:10063000D8064093D9065093DA060091D506009368
:10064000DB060091D6060093DC060091D7060093E6
:10065000DD061091BD062091BE063091BF06409187
:10066000D2065091D3066091D4060E948B6A709393
:10067000400580934105209242053091DB06409170
:10068000DC065091DD066091400570914105809136
:100690004205580F471F361F3093DB064093DC0698
:1006A0005093DD0600E00093400500934105009360
:1006B00042053091CC064091CD065091CE06609116
:1006C000400570914105809142055817470736074C
:1006D00009F4A3C03091D2064091D3065091D406BC
:1006E0006091400570914105809142055817470778
:1006F000360709F492C0009143080023CAF0009124
:10070000D806009339060091D90600933A06009165
:10071000DA0600933B060091DB0600933C0600914D
:10072000DC0600933D060091DD0600933E065DC0A9
:100730003091D8064091D9065091DA066091DB06D7
:100740007091DC068091DD06581B470B360B309309
:10075000390640933A0650933B063091D8064091B3
:10076000D9065091DA066091DB067091DC06809123
:10077000DD06580F471F361F30933C0640933D0659
:1007800050933E0608E0009340050CEA00934105B3
:1007900000E0009342053091390640913A065091AD
:1007A0003B06609140057091410580914205580FCC
:1007B000471F361F3093390640933A0650933B0645
:1007C00030913C0640913D0650913E0660914005B7
:1007D0007091410580914205581B470B360B3093B1
:1007E0003C0640933D0650933E060091CF06009391
:1007F00069060091D00600936A060091D106009325
:100800006B060091D50600936C060091D606009306
:100810006D060091D70600936E0608950091350786
:1008200000933A070091360700933B070091370782
:1008300000933C070091380700933D07009139076A
:1008400000933E070895309035074090360750904A
:10085000370760903807709039072091350730913D
:1008600036074091370750913807609139070E9449
:100870009A6BB0936207C0936307D0936407E093C9
:100880006507F093660730906207409063075090C9
:100890006407609065077090660701E00E94336C02
:1008A0003092620740926307509264076092650736
:1008B0007092660701E00093670700E00093680705
:1008C00000E00093690700E000936A0700E00093EE
:1008D0006B073090670740906807509069076090F9
:1008E0006A0770906B07209162073091630740910F
:1008F00064075091650760916607761A650A540A85
:10090000430A320A30923F07409240075092410713
:1009100060924207709243070895B0933507A09301
:100920003607D0933707C0933807F09339073090D4
:100930003507409036075090370760903807709021
:1009400039072091260730912707409128075091B9
:10095000290760912A070E949A6BB0933507C093CC
:100960003607D0933707E0933807F0933907089597
:10097000EE27FF27CD2FDA2FAB2FBB2312F4BFEFCB
:100980000895BB2708954ADF5EDF309058074090F6
:10099000590750905A0760905B0770905C07209150
:1009A0003F073091400740914107509142076091C5
:1009B00043070E949A6BB0937607C0937707D09352
:1009C0007807E0937907F0937A0730905D074090BD
:1009D0005E0750905F0760906007709061072091FC
:1009E0003A0730913B0740913C0750913D07609199
:1009F0003E070E949A6BB0936207C0936307D0933F
:100A00006407E0936507F09366073090760740909F
:100A10007707509078076090790770907A07209157
:100A200062073091630740916407509165076091B8
:100A30006607761A650A540A430A320A3092760724
:100A400040927707509278076092790770927A0700
:100A5000309058074090590750905A0760905B07B4
:100A600070905C0720913A0730913B0740913C071A
:100A700050913D0760913E070E949A6BB0937B07AF
:100A8000C0937C07D0937D07E0937E07F0937F07A8
:100A900030905D0740905E0750905F076090600760
:100AA0007090610720913F073091400740914107C6
:100AB00050914207609143070E949A6BB09362077E
:100AC000C0936307D0936407E0936507F0936607CC
:100AD00030907B0740907C0750907D0760907E07A8
:100AE00070907F07209162073091630740916407FF
:100AF0005091650760916607760E651E541E431E71
:100B0000321E30927B0740927C0750927D076092A4
:100B10007E0770927F070895F894A0918400B091A9
:100B200085007894E0914808F0914908A09348081E
:100B3000B0934908AE1BBF0B2AF4E0E0F0E0EA1BDB
:100B4000FB0BDF01DD27B695A795D795B695A79541
:100B5000D795B695A795D795B695A795D795CC2750
:100B6000FF27B0933007A0933107D0933207C0938B
:100B70003307F0933407309030074090310750909E
:100B80003207609033077090340720912B07309123
:100B90002C0740912D0750912E0760912F070E943E
:100BA0009A6BB0932607C0932707D0932807E0934A
:100BB0002907F0932A07B0917C05A0917D05D0917B
:100BC0007E05D7DEAADE0091490700935807009101
:100BD0004A070093590700914B0700935A07009169
:100BE0004C0700935B0700914D0700935C07009151
:100BF0004E0700935D0700914F0700935E07009139
:100C0000500700935F070091510700936007009120
:100C1000520700936107B7DE0091760700934907FA
:100C20000091770700934A070091780700934B07DC
:100C30000091790700934C0700917A0700934D07C4
:100C400000917B0700934E0700917C0700934F07AC
:100C500000917D070093500700917E070093510794
:100C600000917F0700935207B0917905A0917A0512
:100C7000D0917B057EDE51DE00914407009358073A
:100C800000914507009359070091460700935A07C2
:100C90000091470700935B070091480700935C07AA
:100CA00000914E0700935D0700914F0700935E0788
:100CB0000091500700935F07009151070093600770
:100CC00000915207009361075EDE00917607009362
:100CD0004407009177070093450700917807009338
:100CE0004607009179070093470700917A07009320
:100CF000480700917B0700934E0700917C07009303
:100D00004F0700917D070093500700917E070093E5
:100D1000510700917F0700935207B0916D05A09194
:100D20006E05D0916F0525DEF8DD00914407009334
:100D30005807009145070093590700914607009313
:100D40005A070091470700935B07009148070093FB
:100D50005C070091490700935D0700914A070093E3
:100D60005E0700914B0700935F0700914C070093CB
:100D7000600700914D070093610705DE009176073B
:100D80000093440700917707009345070091780787
:100D900000934607009179070093470700917A076F
:100DA0000093480700917B070093490700917C0757
:100DB00000934A0700917D0700934B0700917E073F
:100DC00000934C0700917F0700934D0708953090E2
:100DD0004407409045075090460760904707709041
:100DE00048072091440730914507409146075091AC
:100DF0004707609148070E949A6BB0936207C093BF
:100E00006307D0936407E0936507F093660730901B
:100E1000490740904A0750904B0760904C077090EC
:100E20004D072091490730914A0740914B07509157
:100E30004C0760914D070E949A6BB0936707C0936F
:100E40006807D0936907E0936A07F0936B073090C7
:100E50006207409063075090640760906507709048
:100E600066072091670730916807409169075091A4
:100E70006A0760916B07760E651E541E431E321E74
:100E80003092620740926307509264076092650750
:100E90007092660730904E0740904F075090500771
:100EA000609051077090520720914E0730914F0784
:100EB0004091500750915107609152070E949A6BE0
:100EC000B0936707C0936807D0936907E0936A07F8
:100ED000F0936B073090620740906307509064076F
:100EE00060906507709066072091670730916807EA
:100EF0004091690750916A0760916B07760E651EF5
:100F0000541E431E321E3092530740925407509293
:100F1000550760925607709257070895009144074D
:100F200000937107009145070093720700914607EF
:100F300000937307009147070093740700914807D7
:100F4000009375072ED00091C0060093BA06009159
:100F5000C1060093BB060091C2060093BC06009137
:100F600049070093710700914A07009372070091A7
:100F70004B070093730700914C070093740700918F
:100F80004D07009375070DD00091C0060093BD0674
:100F90000091C1060093BE060091C2060093BF06F1
:100FA00008950AE50093670700E00093680700E0F2
:100FB0000093690700E000936A0700E000936B0765
:100FC00030907107409072075090730760907407DB
:100FD0007090750720916707309168074091690705
:100FE00050916A0760916B070E949A6BB0936207F9
:100FF000C0936307D0936407E0936507F093660797
:10100000B0916207A0916307D0916407C091650712
:10101000F0916607AFDCB093C006A093C106D093F1
:10102000C20608950E94666901E00093B50702E0D8
:101030000093B60700E00093B10701E00093B20708
:10104000EF93FF93E0EBF1E10E947B67FF91EF915B
:10105000ECE8F0E00E94F669BB270E94206700E000
:101060000093B1070090B20709E0000E0092B207AA
:10107000EF93FF93EEEBF1E10E947B67FF91EF911D
:101080000E94F6690E94206700E00093B10700907B
:10109000B20709E0000E0092B207EF93FF93ECEC69
:1010A000F1E10E947B67FF91EF910E94F6690E9437
:1010B000206700E00093B1070090B20709E0000E3E
:1010C0000092B207EF93FF93EAEDF1E10E947B6794
:1010D000FF91EF910E94F6690E94206700E0009363
:1010E000B1070090B20709E0000E0092B207EF933B
:1010F000FF93E8EEF1E10E947B67FF91EF910E9480
:10110000F6690E94206700E00093B10709E30093AD
:10111000B207EF93FF93E6EFF1E10E947B67FF9147
:10112000EF91ECE0F2E104E0019FE00DF11D05918B
:101130000093B10705910093B20705910093B3079F
:1011400004910093B40700E00093B5070E949966EC
:101150000E9411690E94DD69083009F40895043085
:1011600021F41A950AF414E05DCF023029F41395A6
:10117000153009F410E056CF0130C9F4ECE8F0E086
:1011800001E0019FE00DF11D0E94F669C1E0D0E091
:10119000E8E0F0E0B0E00E94FD38A02DB12DECE8D1
:1011A000F0E001E0019FE00DF11D0E94026A3ACFDC
:1011B000526F6C6C202841696C2920203A005069DC
:1011C0007463682028456C6529203A005468726F62
:1011D00074746C65202020203A00596177202852D1
:1011E0007564292020203A004155582020202020D5
:1011F000202020203A004241434B205052455620A7
:101200004E455854204348414E4745004D0055092E
:101210004D0955124D12551B4D1B55244D24552D6E
:1012200000E0009340050093410500934205309192
:10123000AE064091AF065091B006609140057091A6
:1012400041058091420558174707360759F03091FC
:10125000AE064091AF06415030403093AE06409309
:10126000AF0608950091D40700231AF002E000931E
:10127000F9070091D50700231AF003E00093F9075E
:101280000091D60700231AF004E00093F9070091BB
:10129000D70700231AF005E00093F907089502E349
:1012A00001B90AE004B90CEF07B902EF0AB90FEF70
:1012B00000937E0005EF05B903E008B90DE00BB916
:1012C000ACE3B0E00E94B9690E94CC69023011F42D
:1012D000A7E003C0063039F4A3E003EF0AB90E9487
:1012E000DA7102EF0AB900E00093800002E0009397
:1012F000810000E00093820005E10093690007E0AF
:101300000DBBEFECF0E00E94546A00934D08009191
:101310004D08002322F40FEF00934C0806C0EEECBA
:10132000F0E00E94546A00934C08002700933708AD
:10133000009338080093390800933A080093FE0799
:1013400000933608E4E9F0E00E941E6A00933B082F
:10135000013021F40FEF0093FE0721C0023051F459
:101360000FEF00933708009338080093FE070093AF
:10137000360815C0033051F40FEF0093370800937F
:1013800039080093FE070093360809C0043039F489
:101390000FEF00933A080093FE0700933608009180
:1013A0003608002322F402E00093680003C00AE03C
:1013B0000093680001E00093730001E000936C006B
:1013C0000091B9000C7F0093B90001E10093B800CF
:1013D0005D9A5C9A5E982B9A299AA4EFB1E00E94DC
:1013E000B9692B9829985E9AA4E6B0E00E94B96981
:1013F0000895089507EE0A95F1F708950E94666929
:1014000001E00093B50702E00093B60700E0009307
:10141000B10709E00093B207EF93FF93ECE9F4E121
:101420000E947B67FF91EF9100E00093B10703E119
:101430000093B207EF93FF93EAEAF4E10E947B671F
:10144000FF91EF9100E00093B1070DE10093B20727
:10145000EF93FF93ECEBF4E10E947B67FF91EF9138
:101460000E941169A8EEB3E00E94B96908950E9434
:10147000FE0900E00093B10709E30093B207EF9380
:10148000FF93E2EFFEE90E947B67FF91EF910E94DC
:1014900011690E94CC690830E1F708954857205639
:1014A000657220322E312E58000046572056657244
:1014B00020312E313953312050726F0053746576CC
:1014C000656973000E94666901E00093B50702E058
:1014D0000093B60704E10093B10709E10093B20756
:1014E000EF93FF93E0E5FEE10E947B67FF91EF91B0
:1014F00000E00093B10709E30093B207EF93FF9375
:10150000EEE5FEE10E947B67FF91EF910E94116979
:101510000E94DD69013009F008950027E0E0F0E065
:101520000E945C6A0C943F0000E000934005009329
:101530004105009342053091A2064091A3065091C7
:10154000A4066091400570914105809142055817AD
:101550004707360759F03091A2064091A306415043
:1015600030403093A2064093A30603C000270093A7
:10157000F7070090E1071090E30701200092F007C1
:101580000091F0070023B2F530919F064091A0062C
:101590004150304030939F064093A00600E00093F6
:1015A0004005009341050093420530919F0640910C
:1015B000A0065091A106609140057091410580916F
:1015C0004205581747073607ACF403E000939F061F
:1015D00000E20093A00600E00093A1060FEF009345
:1015E000F70700E00093A20604E10093A30600E0E1
:1015F0000093A4060090E1071090E20701240092F6
:10160000F0070090E1071090E10701200092E20747
:101610000091F00700233AF400E00093B106009334
:10162000B2060093B30600E00093400500E000938B
:10163000410501E0009342053091B1064091B206A8
:101640005091B3066091400570914105809142052B
:10165000580F471F361F3093B1064093B206509380
:10166000B3060DE70093400500E00093410500E05C
:10167000009342053091B1064091B2065091B306F5
:1016800060914005709141058091420558174707C8
:10169000360764F0009140050093B10600914105C2
:1016A0000093B206009142050093B3060AE000934E
:1016B00040050CEF0093410500E80093420530918E
:1016C000B1064091B2065091B30660914005709109
:1016D000410580914205581747073607B4F130910C
:1016E000B4064091B506415030403093B406409363
:1016F000B50600E0009340050093410500934205C4
:101700003091B4064091B5065091B60660914005FF
:101710007091410580914205581747073607ACF490
:1017200007E00093B40600ED0093B50600E00093D7
:10173000B6060FEF0093F70701E00093A20600E959
:101740000093A30600E00093A4060090F707109012
:10175000F60701280092F0070090F0071090F807B4
:1017600001280092F0070091F007002312F0299859
:101770000895299A08950F93CF93299AC2E30E945E
:10178000BE692998CF910F910895402F2A2F3B2FA2
:101790000E94666901E00093B50705E00093B60773
:1017A000203049F00AE30093B10700E00093B2074C
:1017B00002E00E948167022F0B5F041749F00AE3E1
:1017C0000093B10702E30093B20703E00E94816730
:1017D00002E00093B60708E00093B20715E0FE01AF
:1017E00004E1029FE00DF11D00E00093B107A4E1C8
:1017F00005910E948167AA95D9F70090B20708E089
:10180000000E0092B2071A9579F708E0039F002DA9
:10181000095F0093B207075F0093B40700E00093ED
:10182000B1070FE70093B30700E00093B5070E94EC
:10183000996600E00093B10709E30093B207EF93C4
:10184000FF93E4EDF8E10E947B67FF91EF910E9426
:101850001169AEE10E94CC69003011F0AA95D1F770
:101860000E94CC690030E1F30E94BB0B083019F4F0
:10187000AA2788942BC0043061F4303019F03A95CF
:101880000C94690C203019F02A950C94690C0C9476
:10189000690C023071F4343019F033950C94690CF2
:1018A000042F0550201719F023950C94690C0C9403
:1018B000690C013071F40E9466690E9411690E94EE
:1018C000CC690030E1F7A22FA30F0894C22FD32FC9
:1018D00008955ECF4241434B2020555020202044A4
:1018E0004F574E20454E544552003091A30540912C
:1018F000A4055091A5056091A6057091A70580915A
:10190000A805581B470B360B3093BE054093BF0507
:101910005093C0056091BE057091BF058091C005D0
:1019200008E00E947C6A6093BE057093BF058093B7
:10193000C0053091A6054091A7055091A80560917A
:10194000BE057091BF058091C005580F471F361F17
:101950003093A6054093A7055093A80530918406BF
:1019600040918506509186066091A6057091A70565
:101970008091A805581B470B360B3093BE0540934A
:10198000BF055093C0050AF455C06091BE05709123
:10199000BF058091C00502E00E947C6A6093BE058D
:1019A0007093BF058093C00500E00093400500E1FF
:1019B0000093410500E0009342053091BE0540913F
:1019C000BF055091C005609140057091410580911F
:1019D000420558174707360764F000914005009309
:1019E000BE05009141050093BF050091420500939B
:1019F000C0053091960640919706509198066091E7
:101A0000BE057091BF058091C005580F471F361F56
:101A1000309396064093970650939806B091960699
:101A2000A0919706D0919806AA2322F00FEF009379
:101A3000F607089500270093F60708950091E1073F
:101A400000236AF13091B7064091B806415030400A
:101A50003093B7064093B80600E00093400500932A
:101A60004105009342053091B7064091B806509168
:101A7000B906609140057091410580914205581763
:101A80004707360764F40FEF0093E70701E0009380
:101A9000B70600E90093B80600E00093B90600908D
:101AA000E8071090EB0701200092F0070090E8078C
:101AB00000940092F2070090F2071090EC070120CA
:101AC0000092F1070090F0071090F10701280092B2
:101AD000F2070090F2071090510801280092F107D8
:101AE0000090EA0700940092F2070090F10710902E
:101AF000F20701200092E9070091E107002312F0AC
:101B00002B9808952B9A08951091C9062091CA0622
:101B10003091CB0640917E0650917F066091800601
:101B20000E948B6A70934005809341052092420584
:101B30000091810600936F06009182060093700663
:101B40000091830600937106309140054091410554
:101B50005091420560916F067091700680917106F8
:101B600058174707360764F000916F060093400549
:101B700000917006009341050091710600934205A3
:101B800060916F0670917006809171065527442709
:101B90003327581B470B360B30936F064093700664
:101BA0005093710630914005409141055091420596
:101BB00060916F0670917006809171065817470703
:101BC000360764F400916F0600934005009170069B
:101BD00000934105009171060093420530914F0535
:101BE000409150055091510560914005709141051B
:101BF00080914205581B470B360B30934F0540939D
:101C00005005509351050895C0ECDCE1A091BA074E
:101C1000B091B90704E10E94C50BC093BA07D093F5
:101C2000B90708F008950E94666901E00093B507BE
:101C300002E00093B60704E10093B10709E10093C5
:101C4000B207EF93FF93E0E5FEE10E947B67FF910F
:101C5000EF9100E00093B10709E30093B207EF931F
:101C6000FF93EEE5FEE10E947B67FF91EF910E94FA
:101C700011690E94DD69013009F0C6CF299AA0934D
:101C80004A08E4E7FEE100E40A9FE00DF11DDF01F0
:101C9000C4E0D0E010E4FD010491FE010E94366A28
:101CA000119621961A95B9F72998A0914A08EDEA5C
:101CB000F0E00E94026A0E94C5270E94A612A4CFEB
:101CC00053696E676C65436F7074657220324D2086
:101CD0003253202053696E676C65436F7074657270
:101CE00020314D20345320204475616C436F707453
:101CF000657220202020202020202020547269435B
:101D00006F7074657220536572766F204D34202099
:101D1000547269436F7074657220536572766F20D8
:101D20004D37202059362020202020202020202020
:101D3000202020202020202051756164726F436F85
:101D400070746572202B206D6F646520517561641D
:101D5000726F436F707465722078206D6F646520B8
:101D6000583820202020202020202020202B206DCB
:101D70006F6465205838202020202020202020203B
:101D80002078206D6F64652048657861436F7074BA
:101D900065722020202B206D6F6465204865786176
:101DA000436F7074657220202078206D6F64652009
:101DB0004F63746F436F707465722020202B206D09
:101DC0006F6465204F63746F436F70746572202079
:101DD0002078206D6F646520483620202020202048
:101DE00020202020202020202020202048382020B3
:101DF00020202020202020202020202020202020E3
:101E00005636202020202020202020202020202086
:101E10002020202056382020202020202020202074
:101E20002020202020202020593420202020202065
:101E3000202020202020202020202020562D5461EA
:101E4000696C2020202020202020202020202020FD
:101E500041726520796F7520737572653F0043414B
:101E60004E43454C202020202020202020202020D0
:101E70005945530064000064000300006400009CA6
:101E80000003000000640000320000000000640055
:101E90003200000000000000000000000000000010
:101EA0000000000000000000000000000000000032
:101EB00000000000640000000003000000640064F3
:101EC000320000000000646432000000009C0064E6
:101ED0003200000000009C6432000000000000009E
:101EE00000000000000000000000000000000000F2
:101EF000000000006464000000030000649C000017
:101F000000030000000064640000000000009C6406
:101F100000000000000000000000000000000000C1
:101F200000000000000000000000000000000000B1
:101F30000000000064A9320000030000645732FF73
:101F40000003000064009C00000300000000006427
:101F5000320000000000000000000000000000004F
:101F60000000000000000000000000000000000071
:101F70000000000064A9320000030000645732FF33
:101F80000003000064009C0000030000000000004B
:101F90000000000000000000000000000000000041
:101FA000000000000000006432000000000000009B
:101FB0000000000064A932640003000064A9329CA0
:101FC0000003000064573264000300006457329C31
:101FD0000003000064009C640003000064009C9CFB
:101FE00000030000000000000000000000000000EE
:101FF0000000000064006464000300006464009C4E
:102000000003000064009C6400030000649C009CCA
:1020100000030000000000000000000000000000BD
:1020200000000000000000000000000000000000B0
:102030000000000064B94764000300006447479C47
:10204000000300006447B9640003000064B9B99C50
:10205000000300000000000000000000000000007D
:102060000000000000000000000000000000000070
:102070000000000064006464000300006400649CCD
:102080000003000064640064000300006464009CBA
:102090000003000064009C640003000064009C9C3A
:1020A00000030000649C006400030000649C009C2A
:1020B0000003000064B947640003000064B9479C52
:1020C0000003000064474764000300006447479C26
:1020D000000300006447B964000300006447B99C32
:1020E0000003000064B9B9640003000064B9B99C3E
:1020F0000003000064006464000300006457329C25
:10210000000300006457CE640003000064009C9C40
:102110000003000064A9CE640003000064A9329C9F
:1021200000030000000000000000000000000000AC
:102130000000000064325764000300006464009CE7
:10214000000300006432A9640003000064CEA99C6F
:1021500000030000649C00640003000064CE579CF0
:10216000000300000000000000000000000000006C
:102170000000000064006464000300006447479CA2
:102180000003000064640064000300006447B99C1D
:102190000003000064009C640003000064B9B99C63
:1021A00000030000649C00640003000064B9479CC5
:1021B0000003000064265C6400030000645C269C4D
:1021C00000030000645CDA64000300006426A49C41
:1021D0000003000064DAA4640003000064A4DA9C35
:1021E0000003000064A426640003000064DA5C9C21
:1021F0000003000064474764000300006447009C3C
:10220000000300006447B9640003000064B9B99C8E
:102210000003000064B900640003000064B9479C37
:1022200000030000000000000000000000000000AB
:102230000000000064474764000300006447189CE6
:10224000000300006447E864000300006447B99C91
:102250000003000064B9B9640003000064B9E89C9D
:102260000003000064B918640003000064B9479CCF
:102270000003000064644764000300006447009C9E
:1022800000030000642AB9640003000064D6B99C0E
:102290000003000064B9006400030000649C479CD4
:1022A000000300000000000000000000000000002B
:1022B0000000000064644764000300006451189C3F
:1022C00000030000643DE86400030000642AB99C38
:1022D0000003000064D6B9640003000064C3E89CF6
:1022E0000003000064AF186400030000649C479C76
:1022F0000003000064B94764000300006447479C82
:102300000003000064009C640003000064009C9CC7
:1023100000030000000000000000000000000000BA
:1023200000000000000000000000000000000000AD
:102330000000000064B9470000030000644747FF45
:10234000000300007800A664000300007800A69C4B
:10235000000300000000000000000000000000007A
:10236000000000000000000000000000000000006D
:10237000000000000E94666901E00093B50702E0DA
:102380000093B60700E00093B10701E00093B207A5
:10239000EF93FF93EEEDF4E20E947B67FF91EF91E4
:1023A000E0E7F0E00E94E8690E94206700E0009307
:1023B000B1070090B20709E0000E0092B207EF9358
:1023C000FF93E8EEF4E20E947B67FF91EF910E9499
:1023D000E8690E94206700E00093B1070090B2070F
:1023E0000CE0000E0092B207EF93FF93E2EFF4E2ED
:1023F0000E947B67FF91EF910E94E8690E9420672D
:1024000000E00093B1070090B20709E0000E0092CF
:10241000B207EF93FF93E4E0F5E20E947B67FF9140
:10242000EF910E94E8690E94206700E00093B107E5
:1024300009E30093B207EF93FF93E6E1F5E20E9410
:102440007B67FF91EF91ECE2F5E204E0019FE00D84
:10245000F11D05910093B10705910093B207059115
:102460000093B30704910093B40700E00093B5070D
:102470000E9499660E9411690E94DD69083009F482
:102480000895043021F41A950AF413E073CF023052
:1024900029F41395143009F410E06CCF0130F1F4F5
:1024A000E0E7F0E002E0019FE00DF11DEF93FF9304
:1024B0000E94E869ECE3F5E204E0019FE00DF11D04
:1024C000C591D59105901590E02DF12D0E94FD3814
:1024D000A02DB12DFF91EF910E94EF694BCF5020BD
:1024E0004761696E20203A0050206C696D69742044
:1024F0003A00414343205472696D20526F6C6C2046
:10250000203A0000414343205472696D20506974A1
:102510006368203A00004241434B20505245562008
:102520004E455854204348414E47450035004F0919
:1025300035094F125F157F1E5F1E7F270000007D4B
:102540000000007D18FCE80318FCE80344240E9406
:10255000666900E00093B10700E00093B20702E073
:102560000093B60701E00093B507EF93FF93ECE605
:10257000F9E20E947B67FF91EF914420A1F4EF9371
:10258000FF93E4E7F9E20E947B67FF91EF910FEF81
:10259000602E08E0802E55240E94081353948A94DC
:1025A0008820D1F709C0542C5A94A42DBB270E942F
:1025B000206766240E94081302E00093B60701E03A
:1025C0000093B50700E00093B10709E30093B20759
:1025D000EF93FF93E0E8F9E20E947B67FF91EF91B0
:1025E0000E9411690E94DD69083009F408950430E1
:1025F00031F4439409E0401609F44424A8CF023092
:1026000031F44A94442012F408E0402EA0CF9FCF2A
:10261000E0E0F5E008E0059DE00DF11D01E000932C
:10262000B5070FEF702EDD27A181BB27AA2312F477
:10263000DFEFBFEFB0932406A0932506D0932606C4
:1026400000E000934005009341050093420530915E
:102650002406409125065091260660914005709110
:1026600041058091420558174707360709F077243E
:1026700000E00093400500E00093410500E4009372
:10268000420510912406209125063091260640919E
:10269000400550914105609142050E948B6A7093FC
:1026A0002406809325062092260600E0009340052C
:1026B00000E60093410500E00093420530912406B6
:1026C0004091250650912606609140057091410584
:1026D00080914205580F471F361F309324064093C0
:1026E000250650932606B0912406A0912506D09188
:1026F0002606A093B107DD27A281BB27AA2312F4E7
:10270000DFEFBFEFB0932406A0932506D0932606F3
:1027100000E000934005009341050093420530918D
:10272000240640912506509126066091400570913F
:1027300041058091420558174707360709F077246D
:102740000FEF009340050FEF0093410500EC00935D
:1027500042051091240620912506309126064091CD
:10276000400550914105609142050E948B6A70932B
:102770002406809325062092260600E0009340055B
:1027800000E20093410500E00093420530912406E9
:1027900040912506509126066091400570914105B3
:1027A00080914205580F471F361F309324064093EF
:1027B000250650932606B0912406A0912506D091B7
:1027C0002606A093B207DD27A081BB27AA2312F417
:1027D000DFEFBFEFB0932406A0932506D093260623
:1027E00000E00093400500934105009342053091BD
:1027F000240640912506509126066091400570916F
:1028000041058091420558174707360709F077249C
:10281000A381AA2309F07724772092F466200AF492
:10282000089502E40093B1070BE10093B207EF9320
:10283000FF93E4E6F9E20E947B67FF91EF91089530
:10284000A581A0FD11C0662072F002E40093B107DB
:102850000BE10093B207EF93FF93E8E7F9E20E94E0
:102860007B67FF91EF91089500E60093B30700E2C4
:102870000093B4070E943D680091B1070450009393
:10288000B1070091B20707500093B20705E000932B
:10289000B60704E0A381AA230AF005E00E9481673D
:1028A0000091B1070E500093B1070090B20705E008
:1028B000000E0092B20700E00093B60700E000931C
:1028C000B507052D0E94816766200AF44AC002E020
:1028D0000093B60701E00093B50700E00093B1074D
:1028E0000FE00093B207EF93FF93E4E9F9E20E944F
:1028F0007B67FF91EF9100E00093B10708E100933F
:10290000B207EF93FF93EEE9F9E20E947B67FF9134
:10291000EF9100E00093B10701E20093B207EF935B
:10292000FF93E8EAF9E20E947B67FF91EF9100E0F4
:102930000093B1070AE20093B207A381AA234AF0E9
:10294000EF93FF93ECE8F9E20E947B67FF91EF9130
:1029500008C0EF93FF93E0E9F9E20E947B67FF91E3
:10296000EF910895556E757365642E004D6F746F09
:10297000723A2000414C4C00536572766F2E000075
:102980004241434B20204E4558540000435700001D
:1029900043435700446972656374696F6E007365E1
:1029A000656E2066726F6D0061626F76653A000039
:1029B0000BE60093AD0720E80E947F66A2E3B0E03B
:1029C0000E94B9690BE60093AD0721E00E947F6683
:1029D0000AE10093AD07E2EAF0E00E941E6A00936C
:1029E0004008202F0E947F660BE10093AD07E0EACC
:1029F000F0E00E941E6A00933C08202F0E947F6630
:102A00000CE10093AD07E1EAF0E00E941E6A00933A
:102A10003D08202F0E947F66A2E3B0E00E94B969C2
:102A200008950AE10093AD070E94B0640093400846
:102A30000BE10093AD070E94B06400933C080CE1E9
:102A40000093AD070E94B06400933D0808950E9472
:102A5000666901E00093B50702E00093B60701E064
:102A60000093B10709E10093B207EF93FF93ECE8FD
:102A7000FCE20E947B67FF91EF9100E00093B107B9
:102A80000E94116900E00093DA0700E00093DB0781
:102A900001E00093DD0708E00093DC070FEF0093EF
:102AA000E10700E000939C0601E000939D0600E032
:102AB00000939E062B9A06E006BB0E94084A0E94DD
:102AC000845600270093E30700E00093400508ECDC
:102AD0000093410500E00093420530914F0540917D
:102AE00050055091510560914005709141058091CC
:102AF0004205581B470B360B309340054093410568
:102B00005093420500E000936F0600937006009317
:102B10007106309140054091410550914205609108
:102B20006F06709170068091710658174707360737
:102B30003CF400E0009340050093410500934205FA
:102B400000E000936F0606E00093700600E000933B
:102B50007106109140052091410530914205409148
:102B60006F0650917006609171060E948B6A709397
:102B70004005809341052092420500E000936F06D6
:102B800008E5009370060CEC009371063091400547
:102B9000409141055091420560916F067091700619
:102BA00080917106580F471F361F309340054093A0
:102BB000410550934205009140050093270600917E
:102BC00041050093280600914205009329060091D3
:102BD000400500932A060091410500932B060091C1
:102BE000420500932C060091400500932D060091AC
:102BF000410500932E060091420500932F06009197
:102C00004005009330060091410500933106009184
:102C1000420500933206009140050093330600916F
:102C2000410500933406009142050093350600915A
:102C30004005009336060091410500933706009148
:102C40004205009338060091400500933906009133
:102C5000410500933A060091420500933B0600911E
:102C6000400500933C060091410500933D0600910C
:102C7000420500933E060E948D4A03B100950295DD
:102C80000F70093009F419CF2B9808955468726FAA
:102C900074746C6520706173732D7468726F7567DE
:102CA0006800E0E0F0E00E94546A3196093181F456
:102CB0000E94546A3196033059F40E94546A319646
:102CC000033731F40E94546A3196093109F40895AA
:102CD000002700934C080E947F160FEF00934C08CA
:102CE0000E947F1615E00E94BB0BC0E00E94BE69E7
:102CF0001A95C9F70E94FF620E94040E0895E0E051
:102D0000F0E009E10E94366A319603E00E94366ADB
:102D1000319603E70E94366A319609E10E94366ACD
:102D20003196A4E0B0E0CAECDFE210E4FE010491C9
:102D3000FD010E94366A119621961A95B9F7A4E40E
:102D4000B0E0CAE0D0E318E1FE010491FD010E9469
:102D5000366A119621961A95B9F7A4E8B0E0C2E256
:102D6000D0E318E0FE010491FD010E94366A11963D
:102D700021961A95B9F7AAE0B0E0E8E7F0E00E94E2
:102D8000EF69A0E2B0E0EBEAF0E00E94EF69ABE4AB
:102D9000B0E0E0E7F0E00E94EF69A4E1B0E0E2E734
:102DA000F0E00E94EF69A0E0B0E0EAE7F0E00E9406
:102DB000EF69AEE1B0E0ECE7F0E00E94EF69A0E07F
:102DC000B0E0EEE7F0E00E94EF69A2E3B0E0E0E8F7
:102DD000F0E00E94EF69A8E0B0E0E2E8F0E00E94D5
:102DE000EF69A0E0B0E0E4E7F0E00E94EF69A0E066
:102DF000B0E0E6E7F0E00E94EF69A1E0B0E0ECE8C7
:102E0000F0E00E94026AA2E0B0E0EDE8F0E00E948B
:102E1000026AA3E0B0E0EEE8F0E00E94026AA4E0FB
:102E2000B0E0EFE8F0E00E94026AA5E0B0E0E0E97F
:102E3000F0E00E94026AA0E0B0E0E7E9F0E00E9462
:102E4000EF69A2E3B0E0E9E9F0E00E94EF69A0E0F9
:102E5000B0E0EBE9F0E00E94EF69A2E3B0E0EDE959
:102E6000F0E00E94EF69AA27E1E9F0E00E94026A1F
:102E70000FEFA02FE2E9F0E00E94026A0FEFA02F0F
:102E8000E3E9F0E00E94026AAA27E4E9F0E00E9488
:102E9000026AA8E0B0E0E0EAF0E00E94026AA8E07E
:102EA000B0E0E1EAF0E00E94026AA0E0B0E0E2EA0D
:102EB000F0E00E94026AA2E0B0E0E3EAF0E00E94E3
:102EC000026AAA27E4EAF0E00E94026AAA27EAEA74
:102ED000F0E00E94026AAA27EFE9F0E00E94026A8D
:102EE0000FEFA02FEEECF0E00E94026AAA27EFECB1
:102EF000F0E00E94026AAA27E5EAF0E00E94026A76
:102F0000AA27E6EAF0E00E94026A0FEFA02FE6E9A6
:102F1000F0E00E94026AAA27E7EAF0E00E94026A53
:102F2000AA27E5E9F0E00E94026AAFEFEDEAF0E0DF
:102F30000E94026AA0E0B0E0E8EAF0E00E94EF69D7
:102F4000A0E0B0E0EEEAF0E00E94EF69E2EBF0E032
:102F50000E94EF69E6EBF0E00E94EF69EAEBF0E037
:102F60000E94EF69EEEBF0E00E94EF69E2ECF0E026
:102F70000E94EF69E6ECF0E00E94EF69EAECF0E015
:102F80000E94EF69A4E6B0E0E0EBF0E00E94EF6998
:102F9000E4EBF0E00E94EF69E8EBF0E00E94EF69FB
:102FA000ECEBF0E00E94EF69E0ECF0E00E94EF69EA
:102FB000E4ECF0E00E94EF69E8ECF0E00E94EF69D9
:102FC000ECECF0E00E94EF690895000000000000C2
:102FD00000000000000000000000000000000000F1
:102FE00000000000000000000000000000000000E1
:102FF00000000000000000000000000000000000D1
:1030000000000000000000000000410064001E00FD
:103010001400410064001E0014004100140032003E
:103020000A001E001E002D005A000091EA0700232E
:103030000AF408950E94666901E00093B50702E072
:103040000093B60700E00093B10701E00093B207D8
:10305000EF93FF93E6E6F6E30E947B67FF91EF9123
:1030600000E00093B1070090B20709E0000E009263
:10307000B207EF93FF93ECE7F6E30E947B67FF91C3
:10308000EF9100E00093B1070090B20709E0000E55
:103090000092B207EF93FF93E0E9F6E30E947B67AB
:1030A000FF91EF9100E00093B1070090B20709E0B3
:1030B000000E0092B207EF93FF93E0EAF6E30E945E
:1030C0007B67FF91EF9100E00093B1070090B2079A
:1030D00009E0000E0092B207EF93FF93E6EBF6E3F0
:1030E0000E947B67FF91EF9100E00093B107009091
:1030F000B20709E0000E0092B207EF93FF93E8ECED
:10310000F6E30E947B67FF91EF9100E00093B10727
:1031100009E30093B207EF93FF93E0E5F6E30E9423
:103120007B67FF91EF910E9411690E94DD69013078
:10313000E1F7A5E3B0E00E94666900E00093B10703
:1031400001E00093B207EF93FF93EEEDF6E30E94E8
:103150007B67FF91EF9100E00093B1070090B20709
:1031600009E0000E0092B207EF93FF93ECEEF6E356
:103170000E947B67FF91EF9100E00093B107009000
:10318000B20709E0000E0092B207EF93FF93ECEF55
:10319000F6E30E947B67FF91EF9100E00093B10797
:1031A0000090B20709E0000E0092B207EF93FF9380
:1031B000E6E0F7E30E947B67FF91EF9100E0009368
:1031C000B1070090B20709E0000E0092B207EF933A
:1031D000FF93E4E1F7E30E947B67FF91EF9100E04A
:1031E0000093B1070090B20709E0000E0092B20709
:1031F000EF93FF93E2E2F7E30E947B67FF91EF9189
:1032000008E70093B10701E00093B2070A2F0E947C
:10321000816705E50093B10709E0B09F002D065FC7
:103220000093B207EF93FF93E0E3F7E30E947B671D
:10323000FF91EF910E941169D7E0C0E00E94BE6942
:10324000DA95D9F7B395B53009F075CFB0E0AA9506
:10325000AF3209F070CF0E94666909E10093B107AF
:1032600009E10093B207EF93FF93E4E3F7E30E94D1
:103270007B67FF91EF910E941169C0E00E94BE69D7
:10328000E0E100E00093910500939205009393051F
:1032900000E000939405009395050093960500E0E7
:1032A0000093970500939805009399050E94216467
:1032B0003091910540919205509193056091880558
:1032C0007091890580918A05580F471F361F3093EA
:1032D0009105409392055093930530919405409148
:1032E00095055091960560918B0570918C058091A4
:1032F0008D05580F471F361F309394054093950551
:1033000050939605309197054091980550919905F5
:1033100060918E0570918F0580919005580F471F21
:10332000361F309397054093980550939905C4E64E
:103330000E94BE69EA9509F0B9CF6091910570913C
:1033400092058091930504E00E947C6A6093910548
:103350007093920580939305609194057091950503
:103360008091960504E00E947C6A609394057093B6
:1033700095058093960560919705709198058091C9
:10338000990504E00E947C6A609397057093980504
:1033900080939905D8E2C0E00E94BE69DA95D9F71A
:1033A0000E9466690FEF0093EF0700E00093B107FA
:1033B0000AE00093B207EF93FF93E2E1F8EC0E947A
:1033C0007B67FF91EF91B0919105A0919205D0910B
:1033D00093050E9420670E94D86300E00093B10724
:1033E00003E10093B207EF93FF93ECE1F8EC0E9446
:1033F0007B67FF91EF91B0919405A0919505D091D5
:1034000096050E9420670E94D86300E00093B107F0
:103410000CE10093B207EF93FF93E6E2F8EC0E9411
:103420007B67FF91EF91B0919705A0919805D0919E
:1034300099050E9420670E94D86300E00093B107BD
:1034400009E30093B207EF93FF93E0E5F6E30E94F0
:103450007B67FF91EF910E9411690091EF070023B4
:1034600022F5EDE5F0E0B0919105A0919205D091A3
:1034700093050E94146AB0919405A0919505D0918E
:1034800096050E94146AB0919705A0919805D09175
:1034900099050E94146AEFE9F0E00FEF002F0E94F7
:1034A000366A00E00093F90708C0EFE9F0E0002772
:1034B0000E94366A01E00093F9070E94DD6901303D
:1034C000E1F70E9466690091EF0700230AF40FC03C
:1034D00000E00093B10709E10093B207EF93FF9377
:1034E000E4E4F7E30E947B67FF91EF910EC000E0F8
:1034F0000093B10709E10093B207EF93FF93E8E56A
:10350000F7E30E947B67FF91EF9100E00093B10722
:1035100009E30093B207EF93FF93E0E5F6E30E941F
:103520007B67FF91EF910E9411690E94DD69013074
:10353000E1F70895E0E100E0009370050093710564
:103540000093720500E000937305009374050093E7
:10355000750500E0009376050093770500937805E4
:103560000E9421643091700540917105509172055F
:10357000609167057091680580916905580F471F34
:10358000361F30937005409371055093720530914A
:103590007305409174055091750560916A057091AD
:1035A0006B0580916C05580F471F361F30937305CC
:1035B00040937405509375053091760540917705D9
:1035C0005091780560916D0570916E0580916F0541
:1035D000580F471F361F3093760540937705509359
:1035E0007805C4E60E94BE69EA9509F0B9CF6091FA
:1035F0007005709171058091720504E00E947C6AEB
:1036000060937005709371058093720560917305E6
:10361000709174058091750504E00E947C6A609346
:1036200073057093740580937505609176057091AC
:1036300077058091780504E00E947C6A60937605A6
:1036400070937705809378050FEF00930008089535
:1036500020202020202020202020202020434F4EEA
:1036600054494E554500506C61636520746865206F
:103670006169726372616674206F6E0061206C65AF
:1036800076656C207375726661636520616E640097
:10369000707265737320434F4E54494E55452E004A
:1036A0005468652046432077696C6C207468656EA9
:1036B000207761697400352073656320746F206C16
:1036C0006574207468650000616972637261667474
:1036D00020736574746C6520646F776E2E002020F3
:1036E0002020206C64612023243335006C6F6C3AF9
:1036F00020737461202430343237000020202020D1
:103700002073656300002020202020736263202343
:10371000243031002020202020636D7020232432AB
:1037200066002020202020626E65206C6F6C0000F7
:103730003C2D2D0043616C6962726174696E672E65
:103740002E2E000043616C6962726174696F6E2095
:103750006661696C65642E0043616C6962726174B4
:10376000696F6E20737563636565646564000E94AC
:103770006669E3E9F0E00E94F669AA2362F0E6E9EF
:10378000F0E00E94F669AA2332F40FEFA02FE3E9DC
:10379000F0E00E94026A01E00093B50702E00093A6
:1037A000B60700E00093B10701E00093B207EF9382
:1037B000FF93ECE0FBE30E947B67FF91EF91E1E96F
:1037C000F0E00E94F669A0935008A03049F4EF930E
:1037D000FF93E2E9FBE30E947B67FF91EF911EC03C
:1037E000A13049F4EF93FF93ECE8FBE30E947B6781
:1037F000FF91EF9113C0A23049F4EF93FF93E6E9F4
:10380000FBE30E947B67FF91EF9108C0EF93FF936A
:10381000EEE9FBE30E947B67FF91EF9100E00093EC
:10382000B1070AE00093B207EF93FF93ECE1FBE3EB
:103830000E947B67FF91EF910E94F669AA234AF4E8
:10384000EF93FF93E4EAFBE30E947B67FF91EF9124
:1038500008C0EF93FF93E8EAFBE30E947B67FF91C8
:10386000EF9100E00093B10703E10093B207EF93FB
:10387000FF93EEE2FBE30E947B67FF91EF910E94D2
:10388000F669AA234AF4EF93FF93E4EAFBE30E946C
:103890007B67FF91EF9108C0EF93FF93E8EAFBE3AA
:1038A0000E947B67FF91EF9100E00093B1070CE16C
:1038B0000093B207EF93FF93EEE3FBE30E947B6775
:1038C000FF91EF910E94F669A0933B08A03049F464
:1038D000EF93FF93ECEAFBE30E947B67FF91EF918C
:1038E00040C0A13049F4EF93FF93E0EBFBE30E946B
:1038F0007B67FF91EF911EC0A23049F4EF93FF93D5
:10390000E6EBFBE30E947B67FF91EF9113C0A330CE
:1039100049F4EF93FF93ECEBFBE30E947B67FF918D
:10392000EF9108C0EF93FF93E2ECFBE30E947B670B
:10393000FF91EF9100E00093B10705E20093B20719
:10394000EF93FF93EEE4FBE30E947B67FF91EF911F
:10395000EF93FF93E4EAFBE30E947B67FF91EF9113
:1039600025C000E00093B10705E20093B207EF9392
:10397000FF93EEE4FBE30E947B67FF91EF91E5E9A3
:10398000F0E00E94F669AA234AF4EF93FF93E4EA79
:10399000FBE30E947B67FF91EF9108C0EF93FF93D9
:1039A000E8EAFBE30E947B67FF91EF9100E0009360
:1039B000B1070EE20093B207EF93FF93EEE5FBE34E
:1039C0000E947B67FF91EF91E6E9F0E00E94F669C3
:1039D000AA234AF4EF93FF93E4EAFBE30E947B6798
:1039E000FF91EF9108C0EF93FF93E8EAFBE30E9499
:1039F0007B67FF91EF9100E00093B10709E300932B
:103A0000B207EF93FF93E2E7FBE30E947B67FF912E
:103A1000EF91E8ECFBE304E0019FE00DF11D05915F
:103A20000093B10705910093B20705910093B30786
:103A300004910093B40700E00093B5070E949966D3
:103A40000E9411690E94DD690830F1F4E2E9F0E0BA
:103A50000E941E6A0093DE07E4E9F0E00E94F66926
:103A6000A03059F0E5E9F0E00E94F669AA232AF4B3
:103A7000AA27E5E9F0E00E94026AE5E9F0E00E9489
:103A80001E6A009345080895043021F41A950AF43B
:103A900015E06DCE023029F41395163009F410E0CC
:103AA00066CE013091F5133071F400913B08039517
:103AB00005300CF000E000933B08A02FE4E9F0E0B3
:103AC0000E94026A54CE103071F4009150080395A0
:103AD00004300CF000E000935008A02FE1E9F0E082
:103AE0000E94026A44CEE1E9F0E001E0019FE00DAE
:103AF000F11D0E94F66900E8A027E1E9F0E001E08D
:103B0000019FE00DF11D0E94026A31CE53656C6683
:103B10002D4C6576656C20203A2000004C696E6B58
:103B200020526F6C6C2050697463683A20004175B4
:103B3000746F2044697361726D203A2000005265F1
:103B4000636569766572202020203A200000436872
:103B5000616E6E656C204D6170203A2000004C6FE4
:103B60007374204D6F64656C20416C61726D3A20F6
:103B700000004241434B2050524556204E45585478
:103B8000204348414E4745004F6E0000537469631F
:103B90006B0041555800416C7761797300004E6F9E
:103BA0006E650000596573004E6F00005374640029
:103BB0004350504D000044534D32000044534D5883
:103BC00000005342757300005300790964097A12AA
:103BD0005312681B531B6D245324682D6A2D7F36A6
:103BE0000E94666901E00093B50702E00093B60702
:103BF00000E00093B10701E00093B207EF93FF9359
:103C0000E0E8FDE30E947B67FF91EF91E8E7F0E0D9
:103C10000E94E8690E94206700E00093B1070AE073
:103C20000093B207EF93FF93E2E9FDE30E947B6705
:103C3000FF91EF910E94E8690E94206700E00093E5
:103C4000B10703E10093B207EF93FF93E4EAFDE3CA
:103C50000E947B67FF91EF910E94E8690E942067B4
:103C600000E00093B1070CE10093B207EF93FF93DC
:103C7000E6EBFDE30E947B67FF91EF910E94E8690C
:103C80000E94206700E00093B10705E20093B207AD
:103C9000EF93FF93E8ECFDE30E947B67FF91EF91C8
:103CA0000E94E8690E94206700E00093B1070EE2DD
:103CB0000093B207EF93FF93EAEDFDE30E947B6769
:103CC000FF91EF910E94E8690E94206700E0009355
:103CD000B10709E30093B207EF93FF93ECEEFDE326
:103CE0000E947B67FF91EF91E2E0FEE304E0019F19
:103CF000E00DF11D05910093B10705910093B20706
:103D000005910093B30704910093B40700E000937A
:103D1000B5070E9499660E9411690E94DD6908300A
:103D200009F40895043021F41A950AF415E058CFE7
:103D3000023029F41395163009F410E051CF013008
:103D4000F1F4E8E7F0E002E0019FE00DF11DEF93F0
:103D5000FF930E94E869EAE1FEE304E0019FE00DC1
:103D6000F11DC591D59105901590E02DF12D0E9482
:103D7000FD38A02DB12DFF91EF910E94EF6930CF5A
:103D80004D696E696D756D207468726F74746C65C1
:103D90003A004865696768742044616D70656E69B2
:103DA0006E673A0048656967687420442E204C6944
:103DB0006D6974203A00416C61726D20312F313091
:103DC00020766F6C74733A00536572766F20666963
:103DD0006C746572202020203A00416363205357A1
:103DE0002066696C7465722020203A004241434B82
:103DF0002050524556204E455854204348414E4786
:103E0000450065007F0965097F1265127F1B651BF0
:103E10007F2465247F2D652D7F360000140000006F
:103E2000F40100001E000000007D0000640004009A
:103E300040000E94666901E00093B50702E000932C
:103E4000B60700E00093B10701E00093B207EF93DB
:103E5000FF93EEE9FFE30E947B67FF91EF9100E0A3
:103E60000093B1070EE00093B207EF93FF93ECEAE3
:103E7000FFE30E947B67FF91EF91E4E8F0E00E948E
:103E8000E8690E94206700E00093B10707E1009312
:103E9000B207EF93FF93EAEBFFE30E947B67FF918A
:103EA000EF910E94E8690E94206700E00093B1074B
:103EB00000E20093B207EF93FF93E8ECFFE30E9468
:103EC0007B67FF91EF910E94E8690E94206700E004
:103ED0000093B10709E20093B207EF93FF93E6ED79
:103EE000FFE30E947B67FF91EF910E94E8690E94C7
:103EF000206700E00093B10709E30093B207EF9356
:103F0000FF93E4EEFFE30E947B67FF91EF91EAEFFE
:103F1000FFE304E0019FE00DF11D05910093B1075F
:103F200005910093B20705910093B30704910093A4
:103F3000B40700E00093B5070E9499660E941169DA
:103F40000E94DD69083019F40E94C52708950430E5
:103F500021F41A950AF413E06CCF023029F413957A
:103F6000143009F410E065CF0130C1F4E4E8F0E06A
:103F700002E0019FE00DF11D0E94E869C0E0D3E876
:103F8000E0E0FDE70E94FD38A02DB12DE4E8F0E06F
:103F900002E0019FE00DF11D0E94EF694ACF5374CA
:103FA00069636B205363616C696E6700526F6C6C60
:103FB000202841696C2920203A00506974636820E8
:103FC00028456C6529203A0059617720285275648C
:103FD000292020203A005468726F74746C65202088
:103FE00020203A004241434B2050524556204E4536
:103FF0005854204348414E4745004D0D6E164D160E
:104000006E1F4D1F6E284D286E310E94666901E0BB
:104010000093B50702E00093B60706E00093B107EE
:1040200004E00093B207EF93FF93E6EBF4E40E9401
:104030007B67FF91EF9106E00093B1070DE00093DD
:10404000B207EF93FF93EAECF4E40E947B67FF91E1
:10405000EF9106E00093B10706E10093B207EF93FA
:10406000FF93EEEDF4E40E947B67FF91EF9100E097
:104070000093B10709E30093B207EF93FF93E8E3DE
:10408000F4E40E947B67FF91EF910E9411690E9406
:10409000DD69083009F40895013011F00C94052011
:1040A0000E94111500913C08087106950695069529
:1040B00000933C0800913D08087106950695069509
:1040C00000933D0800933E0800914008077000935C
:1040D000400810E00E94666901E00093B50702E025
:1040E0000093B60700E00093B10701E00093B20728
:1040F000EF93FF93E2EFF3E40E947B67FF91EF9170
:1041000004E60093B10700913C08003041F4EF93BE
:10411000FF93E2E7F4E40E947B67FF91EF910130A7
:1041200041F4EF93FF93E6E7F4E40E947B67FF918D
:10413000EF91023041F4EF93FF93EAE7F4E40E9439
:104140007B67FF91EF91033041F4EF93FF93E0E839
:10415000F4E40E947B67FF91EF9100E00093B107C8
:104160000AE00093B207EF93FF93E2E0F4E40E94C9
:104170007B67FF91EF9104E60093B10700913D0842
:10418000003041F4EF93FF93E6E8F4E40E947B678C
:10419000FF91EF91013041F4EF93FF93E8E8F4E4ED
:1041A0000E947B67FF91EF91023041F4EF93FF9300
:1041B000EAE8F4E40E947B67FF91EF91033041F459
:1041C000EF93FF93ECE8F4E40E947B67FF91EF919B
:1041D00000E00093B10703E10093B207EF93FF9370
:1041E000E2E1F4E40E947B67FF91EF9104E6009323
:1041F000B10700914008003041F4EF93FF93E0E9EC
:10420000F4E40E947B67FF91EF91013041F4EF935A
:10421000FF93E4E9F4E40E947B67FF91EF910230A1
:1042200041F4EF93FF93E8E9F4E40E947B67FF9188
:10423000EF91033041F4EF93FF93ECE9F4E40E9433
:104240007B67FF91EF91043041F4EF93FF93E0EA35
:10425000F4E40E947B67FF91EF91053041F4EF9306
:10426000FF93E4EAF4E40E947B67FF91EF9106304C
:1042700041F4EF93FF93E8EAF4E40E947B67FF9137
:10428000EF9100903D0810903E08011409F422C0FF
:1042900001E00093B5070FE00093B10707E2009338
:1042A000B207EF93FF93EEE4F4E40E947B67FF9183
:1042B000EF9100E00093B50700E00093B10705E23D
:1042C0000093B2070FE70093B30700E30093B4072E
:1042D0000E94996601E00093B50700E00093B107E2
:1042E00008E30093B207EF93FF93E2E2F4E40E9445
:1042F0007B67FF91EF91EAEAF4E404E0019FE00DAF
:10430000F11D05910093B10705910093B207059146
:104310000093B30704910093B40700E00093B5073E
:104320000E9499660E9411690E94DD69083009F4B3
:104330002BC0043021F41A950AF412E0CBCE0230DF
:1043400029F41395133009F410E0C4CE0130D9F4E8
:10435000103031F400913C080395037000933C0841
:10436000113031F400913D080395037000933D082E
:10437000123049F40091400803950770073009F4A2
:1043800000E000934008A6CE00913C08000F000F0B
:10439000000F00933C0800913D0800933F08000F78
:1043A000000F000F00933D08009140080093400863
:1043B000A0913C08E0EAF0E00E94026AA0913D086A
:1043C0000E94026AA09140080E94026A0E94D814CA
:1043D0000E94406C00903F0810903E08011409F4C0
:1043E0000895AA27EFE9F0E00E94026A0E941518DA
:1043F00008954779726F20286465672F7365632974
:104400003A0041636320202020282B2F2D2067298C
:104410003A0046696C7465722020202028487A2969
:104420003A004241434B2050524556204E45585485
:10443000204348414E4745004241434B2020202025
:104440002020202020434F4E54494E5545004163C3
:10445000632043616C206F6E2065786974210000D1
:10446000202020202020202020202020202020204C
:10447000000032353000353030003130303000004F
:104480003230303000003200340038003136000065
:104490003235360031383800393800003432000007
:1044A0003230000031300000350064007C096409BE
:1044B0007C1264127C1B205761726E696E672C201F
:1044C0006368616E67696E67200074686573652054
:1044D00073657474696E67202077696C6C0061661F
:1044E00066656374205026492073657474696E672D
:1044F00073000FEF0093FD070E94666901E00093CF
:10450000B50704E00093B6070091E10700237AF4B1
:1045100002E20093B10706E10093B207EF93FF9325
:10452000E2EBFBE40E947B67FF91EF912BC30091CC
:104530004B080023F2F000E00093B2070091F90766
:10454000013064F406E20093B107EF93FF93E6EACB
:10455000FBE40E947B67FF91EF910BC002E20093A6
:10456000B107EF93FF93ECEAFBE40E947B67FF91B6
:10457000EF910091E10700238AF000E00093B1077A
:1045800009E30093B20702E00093B607EF93FF93AD
:10459000E0E9FBE40E947B67FF91EF9100E000936C
:1045A000B10700E00093B20700914B080023AAF482
:1045B0000091F90701304CF4EF93FF93E8EDFCE430
:1045C0000E947B67FF91EF9108C0EF93FF93E2ECAD
:1045D000FCE40E947B67FF91EF910091E1070023CB
:1045E0000AF4B5C200914D080023FAF40DE60093D9
:1045F000B10700E00093B20702E00093B607009114
:10460000EC0700234AF0EF93FF93E6E0FCE40E94FE
:104610007B67FF91EF9127C0EF93FF93EAE0FCE403
:104620000E947B67FF91EF911EC003E70093B107E3
:1046300000E00093B20702E00093B60700914C0837
:1046400000234AF0EF93FF93E2E0FCE40E947B67D3
:10465000FF91EF9108C0EF93FF93EEEFFBE40E9410
:104660007B67FF91EF9100E00093B10702E10093B7
:10467000B20702E00093B607EF93FF93E8EBFBE489
:104680000E947B67FF91EF910091EA0700234AF4B3
:10469000EF93FF93E0EDFBE40E947B67FF91EF91C6
:1046A00029C00091E9070023EAF40090EC0710907C
:1046B0004D0801200092F0070091F00700232AF036
:1046C00000914E08002372F004C000914F080023AF
:1046D0004AF0EF93FF93E8ECFBE40E947B67FF91C5
:1046E000EF9108C0EF93FF93ECECFBE40E947B6733
:1046F000FF91EF9100E00093B1070BE10093B20747
:10470000EEEEFCE40091F907000FE00F0027F01F28
:10471000A591B491FD010E947B6700E000934005E4
:104720000DE00093410500E4009342051091A305BC
:104730002091A4053091A505409140055091410577
:10474000609142050E948B6A7093400580934105F9
:104750002092420500E000936F0608E00093700687
:1047600000E0009371063091400540914105509161
:10477000420560916F067091700680917106580F26
:10478000471F361F30934005409341055093420523
:1047900060914005709141058091420509E00E94B9
:1047A0007C6A60934005709341058093420500E068
:1047B00000936F0600E00093700600E0009371061E
:1047C00030914005409141055091420560916F063E
:1047D00070917006809171065817470736074CF4A0
:1047E00000E00093400500E00093410500E00093E5
:1047F000420500E00093B10704E20093B20702E033
:104800000093B607EF93FF93E6EDFBE40E947B670E
:10481000FF91EF910CE10093B107B0914005A09199
:104820004105D09142050E9420670EE20E948167F7
:10483000AD2FBB27B0934005A0934105D09342050F
:1048400000E000936F0600E0009370060AE000931A
:10485000710610914005209141053091420540912B
:104860006F0650917006609171060E948B6A70937A
:104870004005809341052092420500E000936F06B9
:104880000AE00093700600E0009371063091400545
:10489000409141055091420560916F0670917006FC
:1048A00080917106581747073607F1F400E000932E
:1048B0006F0601E00093700600E0009371063091EE
:1048C0004005409141055091420560916F067091FD
:1048D000700680917106581B470B360B30934005CC
:1048E0004093410550934205B0914005A091410588
:1048F000D09142050E94206706E50E9481670CE383
:104900000093B10704E20093B20702E00093B607F8
:10491000EF93FF93ECEDFBE40E947B67FF91EF9137
:1049200000E30093400504E80093410503E300938E
:1049300042053091A9054091AA055091AB056091BF
:1049400040057091410580914205580F471F361F61
:1049500030934005409341055093420500E0009399
:104960006F0601E00093700601E800937106109154
:104970004005209141053091420540916F065091CC
:104980007006609171060E948B6A70934005809357
:10499000410520924205609140057091410580914A
:1049A000420509E00E947C6A6093400570934105CE
:1049B00080934205B0914005A0914105D0914205F8
:1049C0000E9420670EE20E948167AD2FBB27B09343
:1049D0004005A0934105D093420500E000936F0687
:1049E00000E0009370060AE0009371061091400504
:1049F000209141053091420540916F06509170061B
:104A0000609171060E948B6A709340058093410506
:104A10002092420500E000936F060AE000937006C2
:104A200000E000937106309140054091410550919E
:104A3000420560916F06709170068091710658175B
:104A400047073607F1F400E000936F0601E000939A
:104A5000700600E0009371063091400540914105D9
:104A60005091420560916F067091700680917106B9
:104A7000581B470B360B309340054093410550932C
:104A80004205B0914005A0914105D09142050E9498
:104A9000206703E40E94816700E00093B1070DE204
:104AA0000093B207EF93FF93E2EEFBE40E947B6773
:104AB000FF91EF91B091BA06A091BB06D091BC06D0
:104AC00000910008002312F40E94206700E0009388
:104AD000B10706E30093B207EF93FF93E0EFFBE427
:104AE0000E947B67FF91EF91B091BD06A091BE0639
:104AF000D091BF0600910008002312F40E942067A5
:104B000000E00093B10700E00093B20700E00093DB
:104B1000400502E00093410500E00093420530911A
:104B2000E4064091E5065091E606609140057091DB
:104B300041058091420558174707360744F0B09168
:104B4000E406A091E506D091E6060E942067009158
:104B50004B080023BAF400914A080F3F99F0A02FA8
:104B6000E0ECFCE104E10A9FE00DF11D00E00093A0
:104B7000B10709E00093B207B3E105910E94816794
:104B8000BA95DAF70E94116900270093FD0708958E
:104B90002020202020202020202020202020202015
:104BA000204D454E5500423A3D3C00003C414140BD
:104BB00041003A413E3C3B0053656C662D6C657686
:104BC000656C2069732000004F4E00004F46460080
:104BD0004E6F6E650000426174743A0054656D70EA
:104BE0003A0020526F6C6C20416E676C653A000091
:104BF000506974636820416E676C653A00005031FB
:104C000000005032000050493100504932004F4BF3
:104C10002E004572726F723A2043616C6962726154
:104C200074652041434320004572726F723A206ED2
:104C30006F20526F6C6C20696E7075742000457225
:104C4000726F723A206E6F20506974636820696ECB
:104C5000707574004572726F723A206E6F205468DE
:104C6000726F20696E70757420004572726F723AAF
:104C7000206E6F2059617720696E70757420200056
:104C80004572726F723A206E6F2041555820696EDE
:104C90007075742020004572726F723A2053616EF5
:104CA00069747920636865636B2020004572726FB8
:104CB00072204E6F204D6F746F72204C61796F754A
:104CC000740020202020202020204552524F5220C6
:104CD00020202020202020002020202020202020F4
:104CE00053414645202020202020202020000E4C2B
:104CF000124C284C3E4C544C6A4C804C964CAC4C5C
:104D00000090E3071090FB0701200092F00700904D
:104D1000F0071090E10701200092F0070091F007E2
:104D2000002342F000E00093AB060093AC06009332
:104D3000AD063AC03091AB064091AC0601E0400FA1
:104D40000027301F3093AB064093AC060FE1009371
:104D5000400500E40093410500E0009342053091D6
:104D6000AB064091AC065091AD0660914005709144
:104D7000410580914205581747073607A9F400E01E
:104D80000093AB060093AC060093AD06002700939A
:104D9000E1070FEF0093E7070091FC0700231AF4E7
:104DA0000FEF0093F80708950091E307002392F5B1
:104DB0000EEF009340050CE00093410500E00093E6
:104DC0004205309152054091530550915405609130
:104DD00040057091410580914205581747073607F5
:104DE000ECF001E00093400504EF0093410500E082
:104DF000009342053091520540915305509154055E
:104E00006091400570914105809142055817470710
:104E1000360724F400E00093E40708950091E407C6
:104E200003950093E4070091E4070F3F09F0ACC03D
:104E3000B0915205A0915305D0915405BB232AF49B
:104E40000091F907003011F008953EC00FEF009374
:104E5000E10700270093F80701E00093A2060CE2A7
:104E60000093A30600E00093A4060E949A1A00E0B3
:104E70000093E4060093E5060093E60600E0009345
:104E800044070093450700934607009347070093A4
:104E9000480700E00093490700934A0700934B0737
:104EA00000934C0700934D0701E000934E0700E08C
:104EB00000934F0700E00093500700E00093510774
:104EC00000E0009352070FC000270093E10700277E
:104ED0000093F80700E00093A20606E90093A306FA
:104EE00000E00093A4060FEF0093F7070FEF009385
:104EF000E70703E000939F0600E20093A00600E0AE
:104F00000093A10600E00093AB060093AC0600936B
:104F1000AD0601E00093400504EF0093410500E079
:104F2000009342053091490540914A0550914B0547
:104F300060914005709141058091420558174707DF
:104F40003607D4F40EEF009340050CE000934105C2
:104F500000E0009342053091490540914A05509187
:104F60004B056091400570914105809142055817AD
:104F7000470736072CF008C00FEF0093EB0704C07B
:104F800000270093EB0700C00895EFECF0E00E94CB
:104F9000546A00934D0800914D08002322F40FEF4E
:104FA00000934C0806C0EEECF0E00E94546A0093B7
:104FB0004C0810E4A0E0B5E0E4E0F0E00E941E6AD6
:104FC0000D9331961A95D1F7E4E4F0E00E94433056
:104FD000009140050093C105009141050093C20571
:104FE000009142050093C3050E9443300E94633044
:104FF000009140050093CA05009141050093CB053F
:10500000009142050093CC050E9443300E9433304A
:10501000009140050093D305009141050093D4050C
:10502000009142050093D5050E9443300E946330F1
:10503000009140050093DC05009141050093DD05DA
:10504000009142050093DE050E9443300091400527
:105050000093C405009141050093C50500914205E8
:105060000093C6050E9443300E94633000914005C2
:105070000093CD05009141050093CE0500914205B6
:105080000093CF050E9443300E94333000914005C9
:105090000093D605009141050093D7050091420584
:1050A0000093D8050E9443300E9463300091400570
:1050B0000093DF05009141050093E0050091420552
:1050C0000093E1050E944330009140050093C7051D
:1050D000009141050093C805009142050093C90560
:1050E0000E9443300E946330009140050093D00538
:1050F000009141050093D105009142050093D2052E
:105100000E9443300E943330009140050093D9053E
:10511000009141050093DA05009142050093DB05FB
:105120000E9443300E946330009140050093E205E5
:10513000009141050093E305009142050093E405C9
:10514000E4E4F0E00E945330009140050093E5054F
:10515000009141050093E605009142050093E705A3
:105160000E9453300E946330009140050093EE0589
:10517000009141050093EF05009142050093F00571
:105180000E9453300E943330009140050093F70590
:10519000009141050093F805009142050093F9053F
:1051A0000E9453300E946330009140050093000636
:1051B000009141050093010600914205009302060B
:1051C0000E945330009140050093E805009141058D
:1051D0000093E905009142050093EA050E945330CF
:1051E0000E946330009140050093F1050091410554
:1051F0000093F205009142050093F3050E9453309D
:105200000E943330009140050093FA05009141055A
:105210000093FB05009142050093FC050E9453306A
:105220000E94633000914005009303060091410500
:105230000093040600914205009305060E94533036
:10524000009140050093EB05009141050093EC05AA
:10525000009142050093ED050E9453300E94633097
:10526000009140050093F405009141050093F50578
:10527000009142050093F6050E9453300E9433309E
:10528000009140050093FD05009141050093FE0546
:10529000009142050093FF050E9453300E94633045
:1052A0000091400500930606009141050093070612
:1052B000009142050093080618E0E0E0F5E0058162
:1052C000889401FD0894A795889400FD0894B795EB
:1052D00038961A95A1F7A093DA07B093DB0708E098
:1052E000009340050CEA0093410500E0009342055D
:1052F00000E00093F307EF93FF9330914005409156
:10530000410550914205EFE3F6E06091F30703E0B9
:10531000609FE00DF11D319341935193FF91EF9107
:105320000091F30703950093F3070091F30708300A
:1053300011F7E8E7F0E00E94433000E000936F06C9
:105340000CE20093700606E600937106109140058A
:10535000209141053091420540916F0650917006B1
:10536000609171060E948B6A7093090680930A0609
:1053700020920B06002700935208E4E8F0E00E9418
:105380004330BB237AF4A095B09501E0A00F00272D
:10539000B01FB0934005A0934105D09342050FEF95
:1053A000009352080E9433300091400500930C0690
:1053B0000091410500930D060091420500930E06F1
:1053C000002700935308E6E8F0E00E944330BB2337
:1053D0007AF4A095B09501E0A00F0027B01FB0931C
:1053E0004005A0934105D09342050FEF0093530869
:1053F0000E9433300091400500930F060091410553
:1054000000931006009142050093110600270093B7
:105410005408E8E8F0E00E944330BB237AF4A095FA
:10542000B09501E0A00F0027B01FB0934005A093F6
:105430004105D09342050FEF009354080E9433308A
:105440000091400500931206009141050093130658
:105450000091420500931406EAE8F0E00E94433010
:10546000BB2362F4A095B09501E0A00F0027B01F08
:10547000B0934005A0934105D09342050E9433307C
:105480000091400500931506009141050093160612
:105490000091420500931706E4E8F0E00E945330C3
:1054A000BB2362F4A095B09501E0A00F0027B01FC8
:1054B000B0934005A0934105D09342050E9433303C
:1054C00000914005009318060091410500931906CC
:1054D0000091420500931A06E6E8F0E00E9453307E
:1054E000BB2362F4A095B09501E0A00F0027B01F88
:1054F000B0934005A0934105D09342050E943330FC
:105500000091400500931B060091410500931C0685
:105510000091420500931D06E8E8F0E00E94533038
:10552000BB2362F4A095B09501E0A00F0027B01F47
:10553000B0934005A0934105D09342050E943330BB
:105540000091400500931E060091410500931F063F
:105550000091420500932006EAE8F0E00E945330F3
:10556000BB2362F4A095B09501E0A00F0027B01F07
:10557000B0934005A0934105D09342050E9433307B
:1055800000914005009321060091410500932206F9
:105590000091420500932306E0E8F0E00E944330CA
:1055A00000E000936F0604E60093700600E00093AD
:1055B000710630916F0640917006509171066091AE
:1055C00040057091410580914205581B470B360BF1
:1055D00030939C0640939D0650939E0660919C06D6
:1055E00070919D0680919E0607E00E947C6A609300
:1055F0009C0670939D0680939E06E0E7F0E00E9473
:1056000043300091400500937206009141050093DC
:1056100073060091420500937406002700934E081C
:1056200000E000934005009341050093420530914E
:105630007206409173065091740660914005709116
:1056400041058091420558174707360719F40FEFB7
:1056500000934E08E2E7F0E00E94433000E0009340
:105660006F060AE00093700600E000937106109147
:105670004005209141053091420540916F065091BF
:105680007006609171060E948B6A70937506809314
:10569000760620927706E0E7F0E00E945330009112
:1056A000400500937806009141050093790600912A
:1056B000420500937A06002700934F0800E000930C
:1056C00040050093410500934205309178064091D2
:1056D000790650917A06609140057091410580915C
:1056E000420558174707360719F40FEF00934F0884
:1056F000E2E7F0E00E94533000E000936F060AE01A
:105700000093700600E0009371061091400520910F
:1057100041053091420540916F06509170066091AD
:1057200071060E948B6A70937B0680937C062092A0
:105730007D06EAE7F0E00E944330009140050093C7
:105740007E060091410500937F060091420500937B
:105750008006ECE7F0E00E9443300E946330009145
:105760004005009381060091410500938206009157
:10577000420500938306E8EAF0E00E94433000E02F
:1057800000936F0604E00093700600E0009371063A
:1057900010914005209141053091420540916F06DE
:1057A00050917006609171060E948B6A7093E706B3
:1057B0008093E8062092E906EEE7F0E00E9443308D
:1057C00000E000936F0603E0009370060DED009378
:1057D000710610914005209141053091420540919C
:1057E0006F0650917006609171060E948B6A7093EB
:1057F0008406809385062092860630918406409127
:105800008506509186066091E7067091E8068091C2
:10581000E906580F471F361F3093840640938506CC
:1058200050938606E2E8F0E00E9443306091400524
:10583000709141058091420508E00E947C6A609366
:105840004005709341058093420500914005009307
:105850008706009141050093880600914205009358
:105860008906E4E7F0E00E944330609140057091C2
:1058700041058091420503E00E947C6A60934005E7
:105880007093410580934205009140050093A50661
:10589000009141050093A606009142050093A706DA
:1058A000E6E7F0E00E9443306091400570914105C9
:1058B0008091420503E00E947C6A609340057093EA
:1058C000410580934205009140050093A806009190
:1058D00041050093A906009142050093AA06E7E955
:1058E000F0E00E9443300E94333000914005009365
:1058F000CC06009141050093CD060091420500932E
:10590000CE06E9E9F0E00E9443300E948130009128
:1059100040050093CF06009141050093D006009109
:1059200042050093D106EBE9F0E00E9443300E946B
:105930003330009140050093D20600914105009359
:10594000D306009142050093D406EDE9F0E00E94F1
:1059500043300E948130009140050093D5060091AC
:1059600041050093D606009142050093D706EDE568
:10597000F0E00E940A6AB0939105A0939205D0933B
:1059800093050E940A6AB0939405A0939505D0935D
:1059900096050E940A6AB0939705A0939805D09344
:1059A000990500270093E807009351080093EA0740
:1059B000E1E9F0E00E941E6AE1E9F0E00E94F66988
:1059C000A0935008A03021F400270093E8070FC0EF
:1059D000A13021F40FEF0093E80709C0A23021F4B1
:1059E0000FEF0093510803C00FEF0093EA07E2E9BD
:1059F000F0E00E941E6A0093DE07E3E9F0E00E94F7
:105A00001E6A0093FB0701E00093DD0705E00093A9
:105A1000DC070FEF0093E70700270093FD0700273F
:105A20000093E10700270093E2070AEF0093D907EC
:105A300000E00093EE0700E00093AB060093AC0695
:105A40000093AD0603E00093A6050FEF0093A705B2
:105A500000E00093A80500E00093A2060093A306CF
:105A60000093A40600E000939F060093A006009315
:105A7000A10600E00093B1060093B2060093B306BE
:105A800000E00093B4060093B5060093B606002725
:105A90000093F70700270093F60700270093FF07FE
:105AA00000270093000800E00093B7060093B806B3
:105AB0000093B90600E00093440700934507009364
:105AC0004607009347070093480700E00093490703
:105AD00000934A0700934B0700934C0700934D0730
